:020000040800F2
:1000000000060020E1010008D10E0008890E00085A
:10001000B10E0008890E0008A90E0008E3010008CF
:10002000E3010008E3010008E3010008C92100081A
:10003000E3010008E3010008E3010008E301000810
:10004000E3010008E3010008E3010008E301000800
:10005000E3010008E3010008C1320008ED320008A6
:10006000193300084533000871330008E301000824
:10007000E3010008E3010008E3010008E3010008D0
:10008000E3010008E3010008E3010008E3010008C0
:10009000E3010008E3010008E30100089D330008C4
:1000A000E3010008E3010008E3010008E3010008A0
:1000B000E3010008E3010008E3010008E301000890
:1000C000E3010008E3010008E3010008E301000880
:1000D000E3010008E3010008E3010008E301000870
:1000E00005340008E3010008E3010008E30100080B
:1000F000E3010008E3010008E3010008E301000850
:10010000E3010008E30100082D310008E3010008C5
:10011000E3010008E3010008E3010008E30100082F
:10012000E3010008E3010008E3010008E30100081F
:10013000E3010008E3010008E3010008E30100080F
:10014000E3010008E3010008E301000805290008B5
:10015000E3010008E3010008E3010008E3010008EF
:10016000E3010008E3010008E3010008E3010008DF
:10017000E3010008E3010008E3010008E3010008CF
:10018000E3010008E3010008E3010008E3010008BF
:10019000E3010008E3010008E3010008E3010008AF
:1001A000E3010008E3010008E3010008E30100089F
:1001B000E3010008E3010008E3010008E30100088F
:1001C000E3010008E3010008E3010008E30100087F
:1001D000E3010008E3010008E3010008E30100086F
:1001E00002E000F000F8FEE772B63A4880F30888B3
:1001F000394880F3098839484EF60851CEF200019B
:10020000086040F20000CCF200004EF63471CEF2ED
:1002100000010860BFF34F8FBFF36F8F40F2000003
:10022000C0F2F0004EF68851CEF200010860BFF334
:100230004F8FBFF36F8F4FF00000E1EE100A4EF6C4
:100240003C71CEF200010860062080F31488BFF3F1
:100250006F8F02F035F802F015F802F0BFFE4FF094
:1002600055301F491B4A91423CBF41F8040BFAE745
:100270001C49194A91423CBF41F8040BFAE71A495C
:100280001A4A1B4B9A423EBF51F8040B42F8040B2A
:10029000F8E700201749184A91423CBF41F8040B87
:1002A000FAE701F0F3FF02F0F5FE144C144DAC42F6
:1002B00003DA54F8041B8847F9E700F09FF8114C63
:1002C000114DAC4203DA54F8041B8847F9E701F0FA
:1002D000DBBF000000060020002200200000000814
:1002E0000000002000060020303800080022002016
:1002F0004022002040220020A82D0020E00100081C
:10030000E0010008E0010008E00100082DE9F04FDD
:100310002DED108AC1F80CD0C3689D46BDEC108A43
:10032000BDE8F08F002383F311882846A047002002
:1003300001F054FBFEE701F0CFFA00DFFEE700001A
:1003400080EA0102844612F0030F4FD111F0030F2F
:1003500032D14DF8044D11F0040F51F8043B0BD08D
:10036000A3F101329A4312F0803F04BF4CF8043BE2
:1003700051F8043B16D100BF51F8044BA3F10132F0
:100380009A4312F0803FA4F101320BD14CF8043BA8
:10039000A24312F0803F04BF51F8043B4CF8044BD9
:1003A000EAD023460CF8013B13F0FF0F4FEA33234A
:1003B000F8D15DF8044B704711F0010F06D011F829
:1003C000012B0CF8012B002A08BF704711F0020F17
:1003D000BFD031F8022B12F0FF0F16BF2CF8022B02
:1003E0008CF8002012F47F4FB3D1704711F8012B25
:1003F0000CF8012B002AF9D1704700BF38B501F085
:10040000B3FE054601F0D6FE0446D8B90F4B9D4217
:100410001AD001339D4218BF044641F2883504BF0B
:1004200001240025002001F0A9FE0CB100F076F8AF
:1004300000F004FD00F0A4FB284600F0C3F800F033
:100440006DF8F9E70025EDE70546EBE7010007B099
:1004500008B500F067FBA0F120035842584108BDE1
:1004600007B541F21203022101A8ADF8043000F0F3
:1004700077FB03B05DF804FB38B5202383F31188C4
:100480001748C3680BB101F033FB164A1448002328
:100490004FF47A7101F0ECFA002383F31188124CC7
:1004A000236813B12368013B2360636813B1636859
:1004B000013B63600D4D2A7832B963687BB9022035
:1004C00000F02EFC322363602B78032B07D1636886
:1004D0002BB9022000F024FC4FF47A73636038BD1E
:1004E00040220020790400085C23002054220020D0
:1004F000084B187003280CD8DFE800F00805020844
:10050000022000F003BC022000F0F6BB024B0022E8
:100510005A607047542200205C23002038B5234ADB
:10052000234B196801313FD004339342F9D1214D57
:100530001F4C2A68A24237D31F4B9B6803F100630C
:1005400003F580439A422FD2002000F033FB0220B3
:10055000FFF7CEFF194B1A6C00221A64196E1A6647
:10056000196E596C5A64596E5A665A6E5A6942F03D
:1005700080025A615A6922F080025A615A691A69E6
:1005800042F000521A611A6922F000521A611B6986
:1005900072B60B4B1C6023682A68202181F31188F6
:1005A0009D4683F30888104738BD00BF20400008EF
:1005B00000400008044000080022002000380240EB
:1005C00008ED00E02DE9F04F95B0AB4C00902022F3
:1005D000FF210CA8A56800F0D7FBA84A0194137866
:1005E000A3B9A7480121C3601170202383F31188A8
:1005F000C3680BB101F07CFAA24AA14800234FF472
:100600007A7101F035FA002383F31188009B13B14E
:100610009D4B009A1A609D4B02931A78032A04D0CE
:100620009A4A00231370984A53604FF0000A009CC6
:10063000D3465646D146012000F068FB24B1924BC8
:100640001B68002B00F01182002000F06BFA05906F
:10065000059B002BF2DB012000F04EFB059B213BAC
:10066000162BE8D801A252F823F000BFC9060008F3
:10067000F10600088507000837060008370600085D
:10068000370600080F080008DF090008F90800080D
:100690005B09000883090008A9090008370600085B
:1006A000BB090008370600082D0A00086907000882
:1006B00037060008710A0008D50600086907000817
:1006C000370600085B0900080220FFF7C1FE00287A
:1006D00040F0F581009B0221BAF1000F08BF1C46D3
:1006E00007A841F21233ADF81C3000F039FAA2E746
:1006F0004FF47A7000F016FA071EEBDB0220FFF7CA
:10070000A7FE0028E6D0013F052F00F2DA81DFE8DE
:1007100007F0030A0D10133605230793042107A8D9
:1007200000F01EFA17E054480421F9E75848042164
:10073000F6E758480421F3E74FF01C08404600F064
:100740003BFA08F104080790042107A800F008FA12
:10075000B8F12C0FF2D1012000FA07F747EA0B0B92
:100760005FFA8BFB4FF0000900F05EFB26B10BF047
:100770000B030B2B08BF0024FFF772FE5BE7464814
:100780000421CDE7002EA5D00BF00B030B2BA1D13C
:100790000220FFF75DFE074600289BD0012000F0F5
:1007A00009FA0220FFF7A4FE00265FFA86F8404609
:1007B00000F010FA044690B10021404600F01AFA09
:1007C00001360028F1D1BA46044641F21213022143
:1007D00007A8ADF81C303E4600F0C2F92BE7012017
:1007E000FFF786FE2546019B9B68AB4207D928464A
:1007F00000F0E2F9013040F067810435F3E7029B35
:1008000000251D70204BBA465D603E46ACE7002EC9
:100810003FF460AF0BF00B030B2B7FF45BAF0220B8
:10082000FFF766FE322000F07DF9B0F10008FFF618
:1008300051AF18F003077FF44DAF019A926808EBAF
:10084000050393423FF646AFB8F5807F3FF742AFCE
:10085000124B0393B84523DD4FF47A7000F062F930
:100860000590059A002AFFF635AF039B059A03F819
:10087000012B0137EDE700BF0022002058230020A4
:1008800040220020790400085C230020542200202C
:1008900004220020082200200C22002058220020E0
:1008A000C820FFF7D5FD074600283FF413AF1F2DE2
:1008B00011D8C5F1200242450CAB25F0030028BF3A
:1008C000424683490392184400F034FA039A804860
:1008D000FF2100F059FA4FEAA8037D490393C8F3BA
:1008E0008702284600F058FA064600283FF46DAF0C
:1008F000039B05EB830537E70220FFF7A9FD0028DE
:100900003FF4E8AE00F0A0F900283FF4E3AE002782
:10091000B846019B9B68BB4218D91F2F11D80C9B6E
:1009200001330ED027F0030314AA134453F8203CDC
:1009300007934046042207A900F0CCFA043780460A
:10094000E7E7384600F038F90790F2E7CDF81C8069
:10095000042107A800F004F906E70023642106A893
:10096000069300F0F3F800287FF4B4AE0220FFF7FE
:100970006FFD00283FF4AEAE069800F04FF90790E7
:10098000E6E70023642106A8069300F0DFF80028BC
:100990007FF4A0AE0220FFF75BFD00283FF49AAE83
:1009A000069800F04BF9EAE70220FFF751FD002816
:1009B0003FF490AE00F058F9E1E70220FFF748FD60
:1009C00000283FF487AE07A9142000F053F9042152
:1009D0000746069006A800F0C3F83946B9E732206A
:1009E00000F0A0F8071EFFF675AEBB077FF472AEED
:1009F000019A926807EB090393423FF66BAE02201F
:100A0000FFF726FD00283FF465AE27F003074F44AB
:100A1000B9453FF4A9AE484600F0CEF8042107904E
:100A200007A800F09DF809F10409F1E74FF47A7086
:100A3000FFF70EFD00283FF44DAE00F005F9002849
:100A400044D00C9B01330BD008220CA9002000F0ED
:100A5000A3F900283AD02022FF210CA800F094F935
:100A6000FFF7FEFC1B4800F0BFFF15B0BDE8F08F9C
:100A7000002E3FF42FAE0BF00B030B2B7FF42AAEAE
:100A80000023642107A8079300F060F807460028B8
:100A90007FF420AE0220FFF7DBFC804600283FF405
:100AA00019AEFFF7DDFC41F2883000F09DFF07989A
:100AB00000F0E8F9464600F0B7F93C46BBE50646CB
:100AC00052E64FF0000905E6BA467EE637467CE678
:100AD00058220020A086010070B50F4B1C7801340D
:100AE000E4B2012C0D4610D80C4C23681E6A4FF45A
:100AF0007A7353430A4601462046B047854204D1E3
:100B0000074B00221A70012070BD4FF4FA7000F0FC
:100B10006BFF0020F8E700BF1022002050250020C6
:100B20009023002007B50023024601210DF10700A4
:100B30008DF80730FFF7D0FF20B19DF8070003B014
:100B40005DF804FB4FF0FF30F9E700000A4608B5F6
:100B50000421FFF7C1FF80F00100C0B2404208BD90
:100B600030B4054C2368DD69044B0A46AC460146A7
:100B7000204630BC604700BF50250020A086010001
:100B800070B501F0E7F9094C094E20800025306866
:100B90002388834208D901F0D7F93368054401332B
:100BA000B5F5804F3360F2D370BD00BF92230020B3
:100BB0006423002001F08CBA00F1006000F5804051
:100BC0000068704700F10060920000F5804001F07D
:100BD0000FBA0000054B1A68054B1B889B1A83420D
:100BE00002D9104401F0B0B90020704764230020FE
:100BF0009223002038B5084D044629B128682044C6
:100C0000BDE8384001F0C0B92868204401F0A4F9DB
:100C10000028F3D038BD00BF6423002010F0030388
:100C200009D1B0F5047F04D200F10050A0F50840CE
:100C30000368184670470023FBE70000014BC058CB
:100C4000704700BF107AFF1F064991F8243033B176
:100C50000023086A81F824300822FFF7B3BF01207F
:100C6000704700BF68230020014B1868704700BF21
:100C7000002004E0F0B51C4B024618681B4BC0F383
:100C80000B050424000C1E88AE421BD15C6893F94E
:100C90000850174B05261F88874208BF93F902505A
:100CA000013E03F10403F6D1013A0A44013C0B462C
:100CB00093420ED214F9016F581C66B100F8016C12
:100CC0000346F5E7013C03F10C03DCD1094C3F2559
:100CD000DFE7184605E02C2490421C7001D2981CD6
:100CE0005D70401AF0BD00BF002004E034350008FC
:100CF00020350008F4340008022802BF024B4FF4EC
:100D000080529A61704700BF00100240022802BF63
:100D1000024B4FF080529A61704700BF00100240B2
:100D2000022801BF024A536983F48053536170471C
:100D30000010024010B50023934203D0CC5CC45491
:100D40000133F9E710BD000030B5013810F9013F5B
:100D50000C466BB194F900509D4201F1010107D19D
:100D6000551E1AB994F90020981A30BD2A46EDE7AD
:100D7000002AF7D11046F8E703460246D01A12F9C6
:100D8000011B0029FAD1704702440346934202D066
:100D900003F8011BFAE770472DE9F843214C15468B
:100DA00094F8242006460F4672BBDFF87880BDB366
:100DB00094F824302BB92022FF2140462662FFF709
:100DC000E3FF94F82400C0F10802AA4228BF2A4693
:100DD0005FFA82F93946920004EB8000FFF7AAFF20
:100DE00094F82430A5EB090599445FFA89F9B9F123
:100DF000080F16441744EDB284F82490D7D1FFF7BA
:100E000023FF0028D3D108E0236A03EB8203834247
:100E1000CBD0FFF719FF0028C7D10020BDE8F88329
:100E20000120FBE768230020024B1A78024B1A705E
:100E3000704700BF902300201022002010B50D4CF9
:100E40000D4800F0DBF821460B4800F003F9246858
:100E50000A48626D936B23F40023936300F0C4FD92
:100E60000749204600F0FCF9626D936B43F40023C0
:100E7000936310BD243600085025002040420F0027
:100E80002C3600087047000000B59BB0EFF30981D5
:100E900068226846FFF74EFFEFF30583014B9B6B1B
:100EA000FEE700BF00ED00E008B5FFF7EDFF000032
:100EB00000B59BB0EFF3098168226846FFF73AFF5F
:100EC000EFF30583014B5B6BFEE700BF00ED00E035
:100ED000FEE7000030B5094D0A4491420DD011F8EB
:100EE000013B5840082340F30004013B2C4013F021
:100EF000FF0384EA5000F6D1EFE730BD2083B8ED60
:100F0000026843681143016003B11847704700004D
:100F100013B5446BD4F894341A681178042915D1A8
:100F2000217C022912D11979128901238B401342A5
:100F30000CD101A904F14C0001F050FFD4F8944405
:100F4000019B21790246206800F0D2F902B010BD61
:100F5000143001F0D3BE00004FF0FF33143001F025
:100F6000CDBE00004C3001F0A5BF00004FF0FF33B4
:100F70004C3001F09FBF0000143001F0A1BE000012
:100F80004FF0FF31143001F09BBE00004C3001F0F7
:100F900071BF00004FF0FF324C3001F06BBF00001A
:100FA00038B5D0F894341A6811780429054601D070
:100FB000012038BD017C0229FAD1587901238340F0
:100FC000508913EA0004F3D105F1140001F032FE58
:100FD00002460028ECD0D5F894544FF4807328686A
:100FE000697900F073F92046E3E70000406BFFF7F2
:100FF000D7BF000000207047704700007FB5124B3C
:10100000036000234360C0E90233012502260F4B31
:10101000057404460290019300F18402294600966B
:101020004FF48073143001F0E1FD094B0294CDE9D7
:10103000006304F523724FF48073294604F14C00D9
:1010400001F0A8FE04B070BD64350008ED0F000883
:10105000110F00080B68202282F311880A7903EB34
:10106000820290614A79093243F822008A7912B1EA
:1010700003EB8203986102230374C0F894140023E5
:1010800083F311887047000038B5037F044613B11D
:1010900090F85430ABB9201D01250221FFF730FF35
:1010A00004F1140025776FF0010100F0C5FC84F80D
:1010B000545004F14C006FF00101BDE8384000F0DD
:1010C000BBBC38BD10B5012104460430FFF718FF42
:1010D0000023237784F8543010BD000038B504464F
:1010E0000025143001F09AFD04F14C00257701F041
:1010F00069FE201D84F854500121FFF701FF2046AE
:10110000BDE83840FFF74CBF90F8443003F060036F
:10111000202B07D190F84520212A4FF0000303D857
:101120001F2A06D800207047222AFBD1C0E90E33BF
:1011300003E0034A82630722C2630364012070470D
:101140001122002037B5D0F894341A681178042998
:1011500004461AD1017C022917D119791289012379
:101160008B40134211D100F14C05284601F0EAFEF4
:1011700058B101A9284601F031FED4F89444019BEE
:1011800021790246206800F0B3F803B030BD0000BA
:10119000F0B500EB810385B09E6904460D46FEB1B3
:1011A000202383F3118804EB8507301D0821FFF706
:1011B000A7FEFB685B691B6806F14C001BB1019040
:1011C00001F01AFE019803A901F008FE024648B199
:1011D000039B2946204600F08BF8002383F31188F7
:1011E00005B0F0BDFB685A691268002AF5D01B8A69
:1011F000013B1340F1D104F14402EAE7093138B56B
:1012000050F82140DCB1202383F31188D4F89424D2
:101210001368527903EB8203DB689B695D6845B113
:1012200004216018FFF76CFE294604F1140001F058
:101230000BFD2046FFF7B4FE002383F3118838BD71
:101240007047000001F0B6B8012303700023C0E925
:101250000133C36183620362C36243620363704705
:1012600038B50446202383F311880025C0E90355CF
:10127000C0E90555416001F0ADF80223237085F304
:10128000118838BD70B500EB810305465069DA60FE
:101290000E46144618B110220021FFF775FDA06913
:1012A00018B110220021FFF76FFD31462846BDE836
:1012B000704001F059B90000826802F001128260AA
:1012C0000022C0E90422826101F0DCB9F0B400EB35
:1012D00081044789E4680125A4698D403D43458127
:1012E00023600023A2606360F0BC01F0F7B9000046
:1012F000F0B400EB81040789E468012564698D403E
:101300003D43058123600023A2606360F0BC01F0CF
:1013100071BA000070B50223002504460370C0E9CD
:101320000255C0E90455C564856180F8345001F068
:10133000B7F863681B6823B129462046BDE87040B2
:10134000184770BD037880F8503005230370436858
:101350001B6810B504460BB1042198470023A36015
:1013600010BD000090F85020436802701B680BB15C
:10137000052118477047000070B590F834300446D6
:1013800013B1002380F8343004F14402204601F008
:101390009BF963689B68B3B994F8443013F0600517
:1013A00039D00021204601F0EDFB0021204601F05C
:1013B000DFFB63681B6813B10621204698470623AC
:1013C00084F8343070BD204698470028E4D094F863
:1013D0004B2094F84A3043EA0223E26B9A4288BFDA
:1013E000E36394F94430E56B002B4FF0200380F267
:1013F0000881002D00F0F780092284F8342083F35F
:1014000011880021D4E90E232046FFF771FF002345
:1014100083F31188D6E794F8452003F07F0343EA6D
:10142000022340F20232934200F0CA8021D8B3F581
:10143000807F4DD00DD8012B44D0022B00F0988036
:10144000002BAED104F14C02A2630222E2632364BA
:10145000BDE7B3F5817F00F0A080B3F5407FA0D158
:1014600094F84630012B9CD1B4F84C3043F0020381
:1014700037E0B3F5006F52D01CD8B3F5A06F36D06B
:10148000A3F5C063012B8CD894F84920616894F8C7
:1014900048304E6894F8471043EA0223204694F8F7
:1014A0004620B04700283FF47CAF4368A36303683D
:1014B000E3631AE0B3F5106F36D040F60242934270
:1014C0007FF46FAF5B4BA3630223E3630023BEE7AC
:1014D00094F84630012B7FF464AFB4F84C3023F01D
:1014E0000203C4E90E55A4F84C3025646FE7B4F844
:1014F0004430B3F5A06F0ED194F8463084F84E30E6
:10150000204601F025F863681B6813B101212046CD
:101510009847032323700023C4E90E3397E704F1AF
:101520004F03A3630123C3E72378042B10D12023A7
:1015300083F311882046FFF7BFFE85F3118803214E
:10154000636884F84F5021701B680BB120469847A0
:1015500094F84630002BDED084F84F3004232370FB
:1015600063681B68002BD6D0022120469847D2E73B
:1015700094F848301D0603F00F0120460AD501F00B
:1015800095F8012804D002287FF40BAF2A4B9AE784
:101590002A4B98E701F07CF8F3E794F84630002BEB
:1015A0007FF4FFAE94F8483013F00F01B3D01A0661
:1015B000204602D501F0FAFAADE701F0EDFAAAE70C
:1015C00094F84630002B7FF4ECAE94F8483013F0DA
:1015D0000F01A0D01B06204602D501F0D3FA9AE7EE
:1015E00001F0C6FA97E7142284F8342083F31188B7
:1015F0002B462A4629462046FFF768FE85F31188C8
:10160000E0E65DB1152284F8342083F311880021CF
:10161000D4E90E232046FFF759FEF8E60B2284F8A2
:10162000342083F311882B462A4629462046FFF7AB
:101630005FFEE3E7943500088C350008903500081C
:1016400038B590F834300446002B42D0063BDAB26D
:101650000F2A38D80F2B36D8DFE803F03B35350892
:10166000263635353535353535353B3B90F84B101D
:1016700090F84A20C36B42EA0122934214D2C26816
:10168000128AB3FBF2F502FB15356DB9202383F303
:1016900011882B462A462946FFF72AFE85F3118832
:1016A0000A2384F834300EE0142384F834302023E5
:1016B00083F3118800231A4619462046FFF706FED9
:1016C000002383F3118838BD036C03B198470023CE
:1016D000E7E70021204601F055FA0021204601F0FD
:1016E00047FA63681B6813B1062120469847062312
:1016F000D7E7000010B590F83430142B044629D0F9
:1017000017D8062B05D001D81BB110BD093B022B01
:10171000FBD80021204601F035FA0021204601F0D7
:1017200027FA63681B6813B10621204698470623F1
:1017300019E0152BE9D10B2380F83430202383F3F3
:10174000118800231A461946FFF7D2FD002383F3C0
:101750001188DAE7C3689B695B68002BD5D1036CFD
:1017600003B19847002384F83430CEE7024B0022BF
:10177000C3E900339A607047942300200023037468
:101780008268054B1B6899689142FBD25A680360D6
:1017900042601060586070479423002008B52023F1
:1017A00083F31188037C032B05D0042B0DD02BB9B8
:1017B00083F3118808BD436900221A604FF0FF339C
:1017C0004361FFF7DBFF0023F2E7D0E9003213604B
:1017D0005A60F3E7002303748268054B1B6899681D
:1017E0009142FBD85A6803604260106058607047AD
:1017F00094230020054B19690874186802681A6060
:101800005360186101230374FEF780BD9423002008
:1018100030B54B1C0B4D87B0044610D02B690A4ADB
:1018200001A800F025F92046FFF7E4FF049B13B15F
:1018300001A800F05DF92B69586907B030BDFFF7CA
:10184000D9FFF8E7942300209D17000838B50C4D08
:1018500041612B6981689A689142044603D8BDE8CA
:101860003840FFF78BBF1846FFF7B4FF01232C6108
:10187000014623742046BDE83840FEF747BD00BF4F
:1018800094230020044B1A681B6990689B68984257
:1018900094BF0020012070479423002010B5084C0D
:1018A000236820691A6822605460012223611A7437
:1018B000FFF790FF01462069BDE81040FEF726BD06
:1018C0009423002008B5FFF7DDFF18B1BDE80840FC
:1018D000FFF7E4BF08BD0000FFF7E0BFFEE7000030
:1018E00010B50C4CFFF742FF00F0B4F80A49802213
:1018F000204600F03BF8012344F8180C037400F074
:1019000073FC002383F3118862B60448BDE81040DD
:1019100000F04CB8BC23002098350008A83500081A
:1019200000F022B9EFF3118020B9EFF305832022F4
:1019300082F311887047000010B530B9EFF30584C9
:10194000C4F3080414B180F3118810BDFFF7BAFF87
:1019500084F31188F9E70000034B59685A68521A5A
:101960009042FBD8704700BF001000E08260022266
:10197000028270478368A3F17C0243F80C2C026951
:1019800043F83C2C426943F8382C074A43F81C2C96
:10199000C26843F8102C022203F8082C002203F836
:1019A000072CA3F1180070472503000810B5202369
:1019B00083F31188FFF7DEFF00210446FFF746FF9F
:1019C000002383F31188204610BD0000024B1B69E1
:1019D00058610F20FFF70EBF94230020202383F3CC
:1019E0001188FFF7F3BF000008B50146202383F3F9
:1019F00011880820FFF70CFF002383F3118808BD2E
:101A000049B1064B42681B6918605A601360436015
:101A10000420FFF7FDBE4FF0FF30704794230020F5
:101A20000368984206D01A680260506059611846EF
:101A3000FFF7A4BE7047000038B504460D46206885
:101A4000844200D138BD036823605C604561FFF7C4
:101A500095FEF4E7054B03F11402C3E905224FF0AC
:101A6000FF310022C3E90712704700BF9423002012
:101A700070B5C0E903230C46054601F099FA1B4AEC
:101A800003461046164650F8141F81420ED11362C9
:101A90000A2C2CBF181903F10A00C5E901142960AA
:101AA000C2E90555BDE8704001F06CBA106A1B1A16
:101AB000E31838BF1C468B68A34202D9204401F0CA
:101AC00071FA73699A6894420CD8AC6099685A6844
:101AD0002B600C1B6A6015605D609C604FF0FF33EB
:101AE000F36170BD1B68A41AECE700BF94230020CB
:101AF00038B51C4B5A6990421D460DD0D0E90021E3
:101B00000A6051600021C160916880680144916061
:101B10004FF0FF32DA6138BD1A46016842F8141FEF
:101B20004A605B6900219342C16003D1BDE838403F
:101B300001F032BA9A6881680A449A602C6A01F00E
:101B400037FA6B699B68021B9342E4D91C44201A44
:101B50000928286A98BF02F10A031844BDE83840F2
:101B600001F020BA942300202DE9F041184C002701
:101B700004F11406656901F01BFA236AAA68C11A08
:101B80008A4215D813442362D5E9003213605A60A3
:101B90006369D5F80C80EF60B34201D101F0FCF924
:101BA00087F311882869C047202383F31188E1E770
:101BB0006169B14209D013441B1ABDE8F0410A2BF8
:101BC0002CBFC0180A3001F0EDB9BDE8F08100BFAC
:101BD0009423002000207047FEE7000070470000BB
:101BE0004FF0FF307047000002290CD0032904D0C9
:101BF0000129074818BF00207047032A05D8054867
:101C000000EBC2007047044870470020704700BFD7
:101C100088360008202200203C36000870B59AB0B3
:101C200001AE054608463146144600F0C1F830467C
:101C3000FFF7A2F8431C5B00C5E9003423700323BF
:101C400063700023C1B202341846DAB2914204F143
:101C5000020401D81AB070BDF25C04F8022C04F83A
:101C6000010C0133F1E7000008B5202383F311884C
:101C70000348FFF767FA002383F3118808BD00BF0C
:101C80005025002090F8443003F01F02012A07D1AC
:101C900090F845200B2A03D10023C0E90E3315E04C
:101CA00003F06003202B08D1B0F848302BB990F82E
:101CB0004520212A03D81F2A04D8FFF725BA222A53
:101CC000EBD0FAE7034A82630722C2630364012070
:101CD000704700BF1822002007B5052917D8DFE894
:101CE00001F0191603191920202383F31188104AD3
:101CF00001900121FFF7C6FA01980E4A0221FFF771
:101D0000C1FA0D48FFF7EAF9002383F3118803B005
:101D10005DF804FB202383F311880748FFF7B4F92B
:101D2000F2E7202383F311880348FFF7CBF9EBE7B1
:101D3000DC350008003600085025002038B50C4D71
:101D40000C4C0D492A4604F10800FFF767FF05F126
:101D5000CA0204F110000949FFF760FF05F5CA72D5
:101D600004F118000649BDE83840FFF757BF00BF2F
:101D7000182A002020220020C0350008C5350008A0
:101D8000D035000870B5044608460D46FEF7F4FF4E
:101D9000C6B22046013403780BB9184670BD3246EE
:101DA0002946FEF7D1FF0028F3D10120F6E7000015
:101DB0002DE9F04705460C46FEF7DEFF2B49C6B27B
:101DC0002846FFF7DFFF08B10A36F6B22849284651
:101DD000FFF7D8FF08B11036F6B2632E0BD8DFF844
:101DE0008C80DFF88C90234FDFF894A02E7846B9D2
:101DF0002670BDE8F08729462046BDE8F047FEF78B
:101E00009FBA252E2ED1072241462846FEF79CFF79
:101E100070B9194B224603F1100153F8040B42F834
:101E2000040B8B42F9D11B78137007351134DDE7B1
:101E3000082249462846FEF787FF98B90F4BA21C97
:101E4000197809090232C95D02F8041C13F8011B54
:101E500001F00F015345C95D02F8031CF0D118349D
:101E60000835C3E704F8016B0135BFE7A836000861
:101E7000D0350008C2360008B0360008107AFF1FBF
:101E80001C7AFF1FBFF34F8F024AD368DB03FCD4D9
:101E9000704700BF003C024008B5094B1B7873B97E
:101EA000FFF7F0FF074B1A69002ABFBF064A5A60C6
:101EB00002F188325A601A6822F480621A6008BD02
:101EC000762C0020003C02402301674508B50B4BEF
:101ED0001B7893B9FFF7D6FF094B1A6942F000420D
:101EE0001A611A6842F480521A601A6822F4805209
:101EF0001A601A6842F480621A6008BD762C0020CD
:101F0000003C02400B28F0B516D80C4A0C4C117856
:101F100079B90C4D26460C234FF0006155F8047B2F
:101F200046F8041B013B13F0FF033944F6D10123AB
:101F3000137054F82000F0BD0020FCE7A82C00200E
:101F4000782C0020D4360008014B53F8200070474D
:101F5000D43600080C2070470B2810B5044601D970
:101F6000002010BDFFF7CEFF064B53F82430184475
:101F7000C21A0BB90120F4E712680132F0D1043B18
:101F8000F6E700BFD43600080B2838B5044628D839
:101F9000FFF7C8FC0546FFF775FFFFF77DFF124A04
:101FA000F323D360E300DBB243F4007343F0020396
:101FB0001361136943F480331361FFF763FF204615
:101FC000FFF7A0FF094B53F8241000F0E5F8FFF7E6
:101FD0007DFF2846FFF7B0FC2046BDE83840FFF7FC
:101FE000BBBF002038BD00BF003C0240D436000813
:101FF00012F001032DE9F04106460F4614464BD17D
:102000008218B2F1016F5DD82F4B1B6813F00103EA
:1020100058D02E4DFFF786FCFFF73EFFF323EB6011
:10202000FFF730FF40F201283946032C18D824F07E
:102030000104264D0C44761A40F20118A1422B6986
:1020400006EB01072AD123F001032B61FFF73EFFC6
:10205000FFF772FC0120BDE8F081043C0436E4E7A0
:10206000B307E4D12B6923F440732B612B6943EA56
:1020700008032B6151F8047B3760BFF34F8FFFF7E4
:1020800001FF33689F42E8D02B6923F001032B61E5
:10209000FFF71CFFFFF750FC0020DCE723F4407340
:1020A0002B612B6943EA08032B610B883B80BFF34C
:1020B0004F8FFFF7E7FE3F8831F8023BBFB2BB42CC
:1020C000BCD0E1E71846C6E700380240003C0240B9
:1020D000084908B50B7828B11BB9FFF7DDFE0123CD
:1020E0000B7008BD002BFCD0BDE808400870FFF75E
:1020F000EDBE00BF762C002010B50244064BD2B2D4
:10210000904200D110BD441C00B253F8200041F8A9
:10211000040BE0B2F4E700BF502800400F4B30B58D
:102120001C6F240407D41C6F44F400741C671C6FDC
:1021300044F400441C670A4C236843F48073236012
:102140000244084BD2B2904200D130BD441C00B2D0
:1021500051F8045B43F82050E0B2F4E70038024045
:10216000007000405028004007B5012201A900205E
:10217000FFF7C2FF019803B05DF804FB13B50446F6
:10218000FFF7F2FFA04205D0012201A9002001942F
:10219000FFF7C4FF02B010BD70470000034B1A6880
:1021A00012B9034A12681A60704700BFAC2C0020B5
:1021B0007438024008B5FFF7F1FF024B1868C0F30E
:1021C000407008BDAC2C0020EFF3098305494A6834
:1021D00022F001024A60683383F30988002383F305
:1021E0001188704730EF00E0202080F3118862B63C
:1021F0000B4B0C4AD96821F4E0610904090C0A432D
:102200000949DA60CA6842F08072CA6007490A6800
:1022100042F001020A601022DA7783F82200704748
:1022200000ED00E00003FA05F0ED00E0001000E032
:1022300010B5202383F311880E4B5B6813F4006301
:1022400014D0F1EE103AEFF30984683C4FF080733C
:10225000E361094BDB68236684F30988FFF712FB0F
:1022600010B1064BA36110BD054BFBE783F311884A
:10227000F9E700BF00ED00E030EF00E037030008B1
:102280003A03000870470000FEE70000084A094BC7
:1022900009498B4204D3094A0021934205D3704770
:1022A00052F8040B43F8040BF3E743F8041BF4E77C
:1022B00070380008A82D0020A82D0020A82D00208F
:1022C0007047000070B5D0E915439E6800224FF0BA
:1022D000FF3504EB42135101D3F800090028BEBFBB
:1022E000D3F8000940F08040C3F80009D3F8000B90
:1022F0000028BEBFD3F8000B40F08040C3F8000BAD
:10230000013263189642C3F80859C3F8085BE0D25B
:102310004FF00113C4F81C3870BD0000890141F072
:102320002001016103699B06FCD41220FFF714BB56
:102330001F4B03EB80022DE9F043D2F80CC05D6D1A
:10234000DCF81420461CD2F800E005EB063605EB5D
:102350004018516871450BD3D5F83428012303FA8E
:1023600000F022EA0000C5F834081846BDE8F08302
:10237000BCF81040AEEB0103A34228BF2346D8F8B7
:102380001849A4B2B3EB840F0FD89468A4F10409E0
:1023900059F8047F3760A4EB09071F44042FF7D8CE
:1023A0001C440B4494605360D3E70020DEE700BF79
:1023B000B02C002010B5054C2046FEF745FF4FF02D
:1023C000A0436365024BA36510BD00BFB02C002085
:1023D0002837000870B50378012B054650D12A4BE9
:1023E000446D98421BD1294B5A6B42F080025A63CC
:1023F0005A6D42F080025A655A6D5A6942F0800265
:102400005A615A6922F080025A610E2143205B69A9
:1024100000F0D6FB1E4BE3601E4BC4F800380023CF
:10242000C4F8003EC02323606E6D4FF45023A363B5
:102430003369002BFCDA012333610C20FFF78CFA9F
:102440003369DB07FCD41220FFF786FA3369002BCF
:10245000FCDA0026A6602846FFF734FF6B68C4F854
:102460001068DB68C4F81468C4F81C684BB90A4BE0
:10247000A3614FF0FF336361A36843F00103A360DE
:1024800070BD064BF4E700BFB02C002000380240BE
:102490004014004003002002003C30C0083C30C023
:1024A000F8B5446D054600212046FFF737FFA96DBA
:1024B00000234FF001128F68C4F834384FF00066E3
:1024C000C4F81C284FF0FF3004EB431201339F4245
:1024D000C2F80069C2F8006BC2F80809C2F8080B1C
:1024E000F2D20B686A6DEB656362102313611669A3
:1024F00016F01006FBD11220FFF72EFAD4F80038A0
:1025000023F4FE63C4F80038A36943F4402343F086
:102510001003A3610923C4F81038C4F814380A4B17
:10252000EB604FF0C043C4F8103B084BC4F8003BCD
:10253000C4F81069C4F80039EB6D03F1100243F4DC
:102540008013EA65A362F8BD0437000840800010DC
:10255000426D90F84E10D2F8003823F4FE6343EA3F
:102560000113C2F8003870472DE9F84300EB8108E9
:10257000456DD8F80C20166806F00306731E022B72
:1025800005EB41130C460FFA81F94FEA41174FF062
:102590000001C3F8101B04F110034FF0010198BFB4
:1025A000B60401FA03F193698EBF344E06F18056EA
:1025B00006F50046002B3CD0B2F812C004F15803D7
:1025C0005B014CEA060C45F803C0D5F81C381943EA
:1025D000EB19C5F81C180021C3F81019536901271D
:1025E000611EA74093B3138A928B9B08012A88BF70
:1025F0005343C26D03EB020C42EA034301F1400274
:1026000005EB8202C0F85CC0214653602846FFF704
:1026100085FED8F80C301B8A43EA845348346401A1
:102620001E432E51D5F81C381F43C5F81C78BDE851
:10263000F88305EB491CDCF8003B23F40043CCF89D
:10264000003BD5F81C3823EA0101C1E704F13F0340
:1026500005EB83030A4A5A6005EB491921462846CF
:10266000FFF75CFED9F8003923F40043C9F80039BC
:10267000D5F81C3823EA0707D7E700BF0080001011
:1026800000040002826D1268C265FFF71BBE0000E5
:102690005831436D49015B5813F4004004D013F4E2
:1026A000001F0CBF02200120704700004831436D1D
:1026B00049015B5813F4004004D013F4001F0CBF11
:1026C000022001207047000000EB8101CB68196AED
:1026D0000B6813604B6853607047000000EB810388
:1026E00030B5DD68AA691368D36019B9402B84BF7F
:1026F000402313606B8A1468426D1C44013CB4FB98
:10270000F3F46343033323F0030302EB411043EA82
:10271000C44343F0C043C0F8103B2B6803F00303ED
:10272000012B09B20ED1D2F8083802EB411013F494
:10273000807FD0F8003B14BF43F0805343F0005338
:10274000C0F8003B02EB4112D2F8003B43F00443D7
:10275000C2F8003B30BD00002DE9F041244D6E6D04
:1027600006EB40130446D3F8087BC3F8087B380710
:102770000AD5D6F81438190706D505EB8403214687
:10278000DB6828465B689847FA071FD5D6F81438E7
:10279000DB071BD505EB8403D968CCB98B69488A64
:1027A0005E68B6FBF0F200FB12628AB91868DA685C
:1027B00090420DD2121AC3E90024202383F311881A
:1027C0000B482146FFF78AFF84F31188BDE8F081AA
:1027D000012303FA04F26B8923EA02036B81CB68BD
:1027E000002BF3D021460248BDE8F041184700BF56
:1027F000B02C002000EB810370B5DD68436D6C697F
:102800002668E6604A0156BB1A444FF40020C2F81D
:1028100010092A6802F00302012A0AB20ED1D3F885
:10282000080803EB421410F4807FD4F8000914BFA9
:1028300040F0805040F00050C4F8000903EB421211
:10284000D2F8000940F00440C2F80009D3F8340877
:10285000012202FA01F10143C3F8341870BD19B91D
:10286000402E84BF4020206020682E8A8419013CBD
:10287000B4FBF6F440EAC44040F000501A44C6E706
:10288000F8B504461E48456D05EB4413D3F80869B6
:10289000C3F80869F10717D5D5F81038DA0713D54A
:1028A00000EB8403D9684B691F68DA68974218D235
:1028B000D21B00271A605F60202383F31188214612
:1028C000FFF798FF87F31188330617D5D5F834281A
:1028D0000123A340134211D02046BDE8F840FFF782
:1028E00027BD012303FA04F2038923EA02030381CB
:1028F0008B68002BE8D021469847E5E7F8BD00BF7C
:10290000B02C00202DE9F74F9848466D7569B369E2
:102910001D4015F480587561044606D0FEF7FAFC98
:1029200003B0BDE8F04FFFF783BC002D12DAD6F8F4
:10293000003E8E489F071EBFD6F8003E23F00303DB
:10294000C6F8003ED6F8043823F00103C6F8043870
:10295000FEF708FD280505D58448FFF7B3FC83483A
:10296000FEF7F0FCA9040CD5D6F8083813F0060FD2
:10297000F36823F470530CBF43F4105343F4A05393
:10298000F3602A0704D56368DB680BB17748984782
:10299000EB0274D4AF0227D5D4F85490DFF8CCB151
:1029A00000274FF0010A09EB4712D2F8003B03F46D
:1029B0004023B3F5802F11D1D2F8003B002B0DDA64
:1029C00062890AFA07F322EA0303638104EB8703AF
:1029D000DB68DB6813B1394658469847A36D013769
:1029E0009B68FFB29F42DED9E80617D5676D3A6A49
:1029F000C2F30A1002F00F0302F4F012B2F5802FB6
:102A000000F08880B2F5402F08D104EB8303002248
:102A1000DB681B6A07F5805790426DD12903D6F811
:102A2000184813D5E20302D50020FFF795FEA30353
:102A300002D50120FFF790FE670302D50220FFF7C1
:102A40008BFE260302D50320FFF786FE6D037FF57C
:102A500067AFE00702D50020FFF712FFA10702D5FC
:102A60000120FFF70DFF620702D50220FFF708FFE4
:102A700023077FF555AF0320FFF702FF50E7636D93
:102A8000DFF8E8B0019300274FF0010AA36D9B68BF
:102A90005FFA87F94B45FFF47DAF019B03EB4913C8
:102AA000D3F8002902F44022B2F5802F22D1D3F8C6
:102AB0000029002A1EDAD3F8002942F09042C3F818
:102AC0000029D3F80029002AFBDB606D4946FFF797
:102AD00025FC22890AFA09F322EA0303238104EB85
:102AE0008903DB689B6813B14946584698474846B6
:102AF000FFF71EFC0137C9E7910708BFD7F8008030
:102B0000072A98BF03F8018B02F1010298BF4FEA30
:102B1000182881E7023304EB830207F580575268D7
:102B2000D2F818C0DCF80820DCE9001CA1EB0C0C82
:102B3000002188420AD104EB830463689B699A6888
:102B400002449A605A681044586067E711F0030F16
:102B500008BFD7F800808C4588BF02F8018B01F1CF
:102B6000010188BF4FEA1828E3E700BFB02C00201E
:102B7000436D03EB4111D1F8003B43F40013C1F85E
:102B8000003B7047436D03EB4111D1F8003943F42A
:102B90000013C1F800397047436D03EB4111D1F8C0
:102BA000003B23F40013C1F8003B7047436D03EB77
:102BB0004111D1F8003923F40013C1F800397047EE
:102BC00000F1604303F561430901C9B283F80013C2
:102BD000012200F01F039A4043099B0003F1604368
:102BE00003F56143C3F880211A60704730B5039C38
:102BF0000172043304FB0325C0E90653049B0363FD
:102C00000021059BC160C0E90000C0E90422C0E9C1
:102C10000842C0E90A11436330BD0000416A002246
:102C2000C0E90411C0E90A22C2606FF00101FEF799
:102C300003BF0000D0E90432934201D1C2680AB94F
:102C4000181D70470020704703691960C26801327F
:102C5000C260C269134482690361934224BF436A1C
:102C600003610021FEF7DCBE38B504460D46E3687B
:102C70003BB16269131D1268A3621344E362002032
:102C800007E0237A33B929462046FEF7B9FE00282B
:102C9000EDDA38BD6FF00100FBE70000C368C269E0
:102CA000013BC3604369134482694361934224BF7B
:102CB000436A436100238362036B03B11847704783
:102CC00070B52023044683F31188866A3EB9FFF766
:102CD000CBFF054618B186F31188284670BDA36A5C
:102CE000E26A13F8015BA362934202D32046FFF726
:102CF000D5FF002383F31188EFE700002DE9F84F9B
:102D000004460E4690469946202787F311880025F1
:102D1000AA46D4F828B0BBF1000F09D14946204695
:102D2000FFF7A2FF20B18BF311882846BDE8F88F8A
:102D3000D4E90A12A8EB050B521A934528BF934613
:102D4000BBF1400F1BD9334601F1400251F8040B8F
:102D500043F8040B9142F9D1A36A40334036A36291
:102D60004035D4E90A239A4202D32046FFF796FF62
:102D70008AF311884545D8D287F31188C9E73046D0
:102D80005A46FDF7D7FFA36A5B445E44A3625D44E5
:102D9000E7E7000010B5029C0172043304FB032135
:102DA000C0E906130023C0E90A33039B0363049BB5
:102DB000C460C0E90000C0E90422C0E908424363DE
:102DC00010BD0000026AC260426AC0E9042200220B
:102DD000C0E90A226FF00101FEF72EBED0E90423FC
:102DE0009A4201D1C26822B9184650F8043B0B60E0
:102DF0007047002070470000C368C2690133C36098
:102E00004369134482694361934224BF436A436127
:102E10000021FEF705BE000038B504460D46E36804
:102E20003BB123691A1DA262E2691344E3620020E8
:102E300007E0237A33B929462046FEF7E1FD002852
:102E4000EDDA38BD6FF00100FBE70000036919609F
:102E5000C268013AC260C269134482690361934245
:102E600024BF436A036100238362036B03B11847E5
:102E70007047000070B520230D460446114683F3C9
:102E80001188866A2EB9FFF7C7FF10B186F3118843
:102E900070BDA36A1D70A36AE26A01339342A36204
:102EA00004D3E16920460439FFF7D0FF002080F306
:102EB0001188EDE72DE9F84F04460D4691469A46F4
:102EC0004FF0200888F311880026B346A76A4FB94F
:102ED00051462046FFF7A0FF20B187F31188304606
:102EE000BDE8F88FD4E90A073A1AA9EB060797421A
:102EF00028BF1746402F1BD905F1400355F8042B76
:102F000040F8042B9D42F9D1A36A4033A3624036B6
:102F1000D4E90A239A4204D3E16920460439FFF731
:102F200095FF8BF311884E45D9D288F31188CDE7F0
:102F300029463A46FDF7FEFEA36A3B443D44A362A0
:102F40003E44E5E7D0E904239A4217D1C3689BB118
:102F5000836A8BB1043B9B1A0ED01360C368013B9C
:102F6000C360C3691A44836902619A4224BF436AF9
:102F70000361002383620123184670470023FBE7A7
:102F800000F096B8034B002258631A610222DA60FF
:102F9000704700BF000C0040014B0022DA60704710
:102FA000000C0040014B5863704700BF000C00400C
:102FB000014B586A704700BF000C00404B684360EB
:102FC0008B688360CB68C3600B6943614B690362A4
:102FD0008B6943620B6803607047000008B5224BA1
:102FE00022481A6940F2FF110A431A611A6922F451
:102FF000FF7222F001021A611A691A6B0A431A63FE
:103000001A6D0A431A651A4A1B6D1146FFF7D6FF5F
:10301000184802F11C01FFF7D1FF174802F13801EF
:10302000FFF7CCFF154802F15401FFF7C7FF144822
:1030300002F17001FFF7C2FF124802F18C01FFF7A5
:10304000BDFF114802F1A801FFF7B8FF0F4802F1D8
:10305000C401FFF7B3FF0E4802F1E001FFF7AEFF36
:10306000BDE8084000F0AEB8003802400000024061
:10307000343700080004024000080240000C0240FF
:10308000001002400014024000180240001C0240E0
:103090000020024008B500F00FFAFEF721FCFFF710
:1030A0007DF8BDE80840FEF749BE0000704700000B
:1030B000104B1A6C42F008021A641A6E42F00802B1
:1030C0001A660D4A1B6E936843F0080393600B4B1E
:1030D00053229A624FF0FF32DA6200229A615A63F9
:1030E000DA605A6001225A6108211A603220FFF723
:1030F00067BD00BF00380240002004E0000C004023
:10310000094A08B51169D3680B40D9B2C9439B0776
:10311000116107D5202383F31188FEF701FC0023FA
:1031200083F3118808BD00BF000C004008B5FFF70D
:10313000E7FFBDE80840FFF77BB800001F4B1A69A6
:103140006FEAC2526FEAD2521A611A69C2F30802D8
:103150001A614FF0FF301A695A69586100215A69A3
:1031600059615A691A6A62F080521A621A6A02F048
:1031700080521A621A6A5A6A58625A6A59625A6ABC
:103180001A6C42F080521A641A6E42F080521A662B
:103190001A6E0B4A106840F480701060186F00F4CB
:1031A0004070B0F5007F1EBF4FF48030186719677C
:1031B000536823F40073536000F05EB90038024096
:1031C00000700040354B4FF080521A64344A4FF47F
:1031D000404111601A6842F001021A601A689207B1
:1031E000FCD59A6822F003029A602C4B19469A6823
:1031F00012F00C02FBD1186800F0F90018609A6018
:103200001A6842F480321A600B689B03FCD54B6F3E
:1032100043F001034B67214B5A6F9007FCD5214ABD
:103220005A601A6842F080721A601D4A5368590445
:10323000FCD51A4B1A689201FCD51B4A9A600322EE
:10324000C3F88C20194B1A68194B9A42194B21D19B
:10325000194A1168194A91421CD140F205121A60AC
:10326000144A136803F00F03052BFAD10B4B9A682D
:1032700042F002029A609A6802F00C02082AFAD11F
:103280005A6C42F480425A645A6E42F480425A6642
:103290005B6E704740F20572E1E700BF0038024004
:1032A000007000400854400700948838002004E073
:1032B00011640020003C024000ED00E041C20F41DB
:1032C000084A08B5516913680B4003F001035361C4
:1032D00023B1054A13680BB150689847BDE8084010
:1032E000FEF7A6BF003C0140282D0020084A08B583
:1032F000516913680B4003F00203536123B1054A7F
:1033000093680BB1D0689847BDE80840FEF790BFBE
:10331000003C0140282D0020084A08B55169136877
:103320000B4003F00403536123B1054A13690BB149
:1033300050699847BDE80840FEF77ABF003C01405D
:10334000282D0020084A08B5516913680B4003F086
:103350000803536123B1054A93690BB1D0699847BB
:10336000BDE80840FEF764BF003C0140282D002066
:10337000084A08B5516913680B4003F01003536104
:1033800023B1054A136A0BB1506A9847BDE808405B
:10339000FEF74EBF003C0140282D0020174B10B512
:1033A0005A691C68144004F478725A61A30604D563
:1033B000134A936A0BB1D06A9847600604D5104A45
:1033C000136B0BB1506B9847210604D50C4A936BD5
:1033D0000BB1D06B9847E20504D5094A136C0BB1C9
:1033E000506C9847A30504D5054A936C0BB1D06C7B
:1033F0009847BDE81040FEF71BBF00BF003C0140EE
:10340000282D00201A4B10B55A691C68144004F48A
:103410007C425A61620504D5164A136D0BB1506D9A
:103420009847230504D5134A936D0BB1D06D984787
:10343000E00404D50F4A136E0BB1506E9847A104F7
:1034400004D50C4A936E0BB1D06E9847620404D534
:10345000084A136F0BB1506F9847230404D5054AEF
:10346000936F0BB1D06F9847BDE81040FEF7E0BEF8
:10347000003C0140282D0020062108B50846FFF732
:103480009FFB06210720FFF79BFB06210820FFF783
:1034900097FB06210920FFF793FB06210A20FFF77F
:1034A0008FFB06211720FFF78BFBBDE808400621A4
:1034B0002820FFF785BB000008B5FFF73FFE00F0AE
:1034C0000BF8FDF7BFFEFDF797FDFFF7EFFDBDE839
:1034D0000840FFF755BD00000023054A1946013397
:1034E000102BC2E9001102F10802F8D1704700BFA9
:1034F000282D002053544D3332463F3F3F000000FB
:1035000053544D3332463430780053544D333246A1
:103510003432780053544D333246343436585800E0
:10352000012033000010410001105A00031059001F
:103530000710310000000000F43400083F000000D4
:1035400013040000003500083F00000019040000CB
:103550000A3500083F00000021040000143500086F
:103560003F000000000000006D0F0008590F000828
:10357000950F0008810F00088D0F0008790F0008D3
:10358000650F0008510F0008F50F0008000000004B
:1035900001000000000000006D61696E0000000085
:1035A00069646C6500000000A0350008D823002085
:1035B0005025002001000000DD1800080000000078
:1035C00043534B590025424F415244252D424C0054
:1035D0002553455249414C250000000002000000DF
:1035E0000000000091110008FD110008400040009B
:1035F000E8290020F8290020020000000000000057
:10360000030000000000000041120008000000005C
:1036100010000000082A0020000000000100000047
:1036200000000000B02C002001010200D91C00089D
:10363000E91B0008851C0008691C00084300000005
:103640004436000809024300020100C032090400A8
:1036500000010202010005240010010524010001FF
:10366000042402020524060001070582030800FF66
:1036700009040100020A00000007050102400000E1
:10368000070581024000000012000000903600088B
:10369000120110010200004009124157000201020C
:1036A000030100000403090425424F415244250050
:1036B000436C656172536B7941766567614C6974DF
:1036C000650030313233343536373839414243447E
:1036D000454600000040000000400000004000009F
:1036E0000040000000000100000002000000020095
:1036F00000000200000002000000020000000200C2
:1037000000000200000000007913000841160008C4
:10371000F516000840004000102D0020102D00205C
:1037200001000000202D002080000000400100006A
:10373000030000000000800200000000AAAAAAAA5C
:1037400000000000FFFF00000000000000A00A00D1
:103750000000000000000000AAAAAAAA00000000C1
:10376000FFFF0000000000000000000014000054F3
:1037700000000000AAAAAAAA14000054FFFF00003B
:1037800000000000000000000040100000000000E9
:10379000AAAA8AAA00401000FFFF00000000000053
:1037A000000000000001000100000000AAAAAAAA6F
:1037B00000010000FFFF000000000000000000000A
:1037C0000000000000000000AAAAAAAA0000000051
:1037D000FFFF0000000000000000000000000000EB
:1037E00000000000AAAAAAAA00000000FFFF000033
:1037F00000000000000000000000000000000000C9
:103800000A000000000000000300000000000000AB
:1038100000000000000000000000000000000000A8
:103820000000000000000000000000000000000098
:10383000720400000000000000C00F000000000043
:10384000FF0096000000000800960000000008003D
:1038500004000000A4360008000000000000000082
:103860000000000000000000000000000000000058
:00000001FF
